{
  "contractName": "Adoption",
  "abi": [
    {
      "constant": true,
      "inputs": [
        {
          "name": "",
          "type": "uint256"
        }
      ],
      "name": "adopters",
      "outputs": [
        {
          "name": "",
          "type": "address"
        }
      ],
      "payable": false,
      "stateMutability": "view",
      "type": "function"
    },
    {
      "constant": false,
      "inputs": [
        {
          "name": "petId",
          "type": "uint256"
        }
      ],
      "name": "adopt",
      "outputs": [
        {
          "name": "",
          "type": "uint256"
        }
      ],
      "payable": false,
      "stateMutability": "nonpayable",
      "type": "function"
    },
    {
      "constant": true,
      "inputs": [],
      "name": "getAdopters",
      "outputs": [
        {
          "name": "",
          "type": "address[16]"
        }
      ],
      "payable": false,
      "stateMutability": "view",
      "type": "function"
    }
  ],
  "bytecode": "0x608060405234801561001057600080fd5b50610341806100206000396000f300608060405260043610610057576000357c0100000000000000000000000000000000000000000000000000000000900463ffffffff1680633de4eb171461005c57806343ae80d3146100af5780638588b2c51461011c575b600080fd5b34801561006857600080fd5b5061007161015d565b6040518082601060200280838360005b8381101561009c578082015181840152602081019050610081565b5050505090500191505060405180910390f35b3480156100bb57600080fd5b506100da600480360381019080803590602001909291905050506101de565b604051808273ffffffffffffffffffffffffffffffffffffffff1673ffffffffffffffffffffffffffffffffffffffff16815260200191505060405180910390f35b34801561012857600080fd5b5061014760048036038101908080359060200190929190505050610213565b6040518082815260200191505060405180910390f35b6101656102f1565b60006010806020026040519081016040528092919082601080156101d4576020028201915b8160009054906101000a900473ffffffffffffffffffffffffffffffffffffffff1673ffffffffffffffffffffffffffffffffffffffff168152602001906001019080831161018a575b5050505050905090565b6000816010811015156101ed57fe5b016000915054906101000a900473ffffffffffffffffffffffffffffffffffffffff1681565b60008082101580156102265750600f8211155b151561029a576040517f08c379a00000000000000000000000000000000000000000000000000000000081526004018080602001828103825260178152602001807f5065742773204944206973206e6f7420636f727265637400000000000000000081525060200191505060405180910390fd5b336000836010811015156102aa57fe5b0160006101000a81548173ffffffffffffffffffffffffffffffffffffffff021916908373ffffffffffffffffffffffffffffffffffffffff160217905550819050919050565b610200604051908101604052806010906020820280388339808201915050905050905600a165627a7a72305820086402a165a2123a835050994204407a9525109f26b39439546d8694d2a0ad0a0029",
  "source": "pragma solidity ^0.4.17;\r\n\r\ncontract Adoption {\r\n  address[16] public adopters;\r\n  // ペットを受け取る\r\n  function adopt(uint petId) public returns (uint) {\r\n    require(petId >= 0 && petId <= 15, \"Pet's ID is not correct\");\r\n  \r\n    adopters[petId] = msg.sender;\r\n  \r\n    return petId;\r\n  }\r\n  // 飼い主を検索する\r\n  function getAdopters() public view returns (address[16]) {\r\n    return adopters;\r\n  }\r\n}",
  "sourcePath": "/mnt/c/react-apps/samples/truffle-pet-shop-tutorial/contracts/Adoption.sol",
  "compiler": {
    "name": "solc",
    "version": "0.4.24+commit.e67f0147.Emscripten.clang"
  },
  "schemaVersion": "2.0.1",
  "updatedAt": "2018-10-10T14:03:44.004Z"
}